:04000000F2EF0BF020
:10100000004D6F64652053554D4F206163746976C0
:101010006520210A0D004D6F646520636F75727342
:1010200065206163746976650A0D00526F626F74A2
:10103000205052455420210A0D00000091EC0AF086
:1010400001C020F002C021F020C0D9FF21C0DAFF8A
:10105000DECF12F0DDCF13F020EE02F02050D926C3
:101060002150DA22DECF14F0DDCF15F020EE04F0AF
:101070002050D9262150DA22DECF16F0DDCF17F02E
:1010800020EE06F02050D9262150DA22DECF18F0CB
:10109000DDCF19F020EE08F02050D9262150DA22B9
:1010A000DECF1AF0DDCF1BF013BE16D0135004E1D3
:1010B000640E125CD8A010D015BE0ED0155004E1FD
:1010C000640E145CD8A008D017BE06D017502EE1CD
:1010D000640E165CD8B02AD0FE0E026EA20E016E0F
:1010E000D1EC0AF0010E026E5E0E016E01EC0BF007
:1010F000000E1D6E000E1C6E1DBE08D01D5005E1B9
:10110000080E1C5CD8B08ED001D08CD0A30E116E0E
:10111000550EE82EFED7112EFCD700F01C4A1D2AD2
:101120001DBEF4D71D507EE1EBD77CD019BE0ED08A
:10113000195004E1640E185CD8A008D01BBE06D07C
:101140001B502AE1640E1A5CD8B026D0010E026E44
:101150005E0E016ED1EC0AF0FE0E026EA20E016E62
:1011600001EC0BF0000E1F6E000E1E6E1FBE08D0AD
:101170001F5058E1080E1E5CD8B054D001D052D098
:10118000A30E116E550EE82EFED7112EFCD700F0DF
:101190001E4A1F2AEBD746D0BDEC0BF001500210BF
:1011A000D8B40DD0030E026EE80E016ED1EC0AF039
:1011B000030E026EE80E016E01EC0BF033D0A3ECCF
:1011C0000BF001500210D8B40DD0030E026EE80EE1
:1011D000016ED1EC0AF0FE0E026ED40E016E01EC2F
:1011E0000BF020D0B0EC0BF001500210D8B40DD0B1
:1011F000FE0E026ED40E016ED1EC0AF0030E026EEA
:10120000E80E016E01EC0BF00DD0000E026EE60E42
:10121000016ED1EC0AF0000E026EE60E016E01ECDA
:101220000BF000D01200000E076E000E066E07BE17
:1012300008D0075012E1640E065CD8B00ED001D081
:101240000CD0A30E056E550EE82EFED7052EFCD74A
:1012500000F0064A072AEBD700D0000E026EC80E37
:10126000016ED1EC0AF0000E026EC80E016E01ECA8
:101270000BF0000E096E000E086E09BE08D0095072
:1012800012E1190E085CD8B00ED001D00CD0A30E1C
:10129000056E550EE82EFED7052EFCD700F0084A45
:1012A000092AEBD700D0FE0E026ED40E016ED1ECEF
:1012B0000AF0010E026E2C0E016E01EC0BF0000E16
:1012C0000B6E000E0A6E0BBE08D00B5012E10A0E18
:1012D0000A5CD8B00ED001D00CD0A30E056E550E0E
:1012E000E82EFED7052EFCD700F00A4A0B2AEBD7D2
:1012F00000D0000E026EC80E016ED1EC0AF0000E96
:10130000026EC80E016E01EC0BF0000E0D6E000EA9
:101310000C6E0DBE08D00D5012E1190E0C5CD8B049
:101320000ED001D00CD0A30E056E550EE82EFED7C0
:10133000052EFCD700F00C4A0D2AEBD700D0120086
:1013400091EC0AF001C01BF002C01CF01BC0D9FFD9
:101350001CC0DAFFDECF11F0DDCF12F020EE02F07C
:101360001B50D9261C50DA22DECF13F0DDCF14F04B
:1013700020EE04F01B50D9261C50DA22DECF15F0E7
:10138000DDCF16F020EE06F01B50D9261C50DA22D5
:10139000DECF17F0DDCF18F020EE08F01B50D92675
:1013A0001C50DA22DECF19F0DDCF1AF016BE13D0B2
:1013B000165004E1C90E155CD8A00DD0010E026EC6
:1013C000900E016ED1EC0AF0010E026E900E016ECD
:1013D00001EC0BF03AD012BE1BD0125004E1C90E42
:1013E000115CD8A015D014BE13D0145004E1C90E5E
:1013F000135CD8A00DD0010E026E900E016ED1ECE0
:101400000AF0FE0E026E700E016E01EC0BF01DD0A4
:1014100018BE1BD0185004E1C90E175CD8A015D017
:101420001ABE13D01A5004E1C90E195CD8A00DD011
:10143000FE0E026E700E016ED1EC0AF0010E026E0D
:10144000900E016E01EC0BF000D01200000E946EB5
:101450005FEC0BF000EC0CF08DEC0BF0E0EC0BF023
:10146000F9EC0BF0000E236E520E226E2250D5ECDA
:101470000BF0000E026E000E016ED1EC0AF0000EB1
:10148000026E000E016E01EC0BF0000E256E000ED8
:10149000246E000E276E000E266E2B0E026E100EAE
:1014A000036E31EC0BF023D0E9EC0BF0286E630EE9
:1014B0002818D8A40BD0160E026E100E036E31EC55
:1014C0000BF0000E276E010E266E11D0730E281839
:1014D000D8A40DD013EC09F0010E026E100E036EAD
:1014E00031EC0BF0000E256E010E246E00D024505E
:1014F0002510D8A406D026502710D8A402D0D4D7BF
:1015000000D024502510D8B403D01EEC08F0F9D731
:1015100026502710D8B4F5D7A0EC09F0F2D700EF89
:1015200000F0000E106E000E0F6E10BE08D01050AE
:1015300032E1050E0F5CD8B02ED001D02CD0100EA9
:10154000E82EFED700D00FC003F003460346C2507A
:101550000318C30B0318C26EC28200D0C2B2FED7FA
:10156000C350C4CF03F0046A03C004F0036A032627
:10157000000E0422D8900F34D96E1034DA6E050EA6
:10158000D926000EDA2203C0DEFF04C0DDFF0F4AB9
:10159000102ACBD700D0050E016E000E026E00D0CF
:1015A000120002AE06D0829A016C021ED8B0022A46
:1015B00002D0828A00D001A203D0036A032A01D09C
:1015C000036A033A0346BD500318DF0B0318BD6ED0
:1015D00001A003D0036A032A01D0036A033ABD5075
:1015E0000318EF0B0318BD6E01C003F002C004F036
:1015F0000434043203320434043203320350BE6E26
:10160000120002AE06D08290016C021ED8B0022AEF
:1016100002D0828000D001A203D0036A032A01D045
:10162000036A033A0346BA500318DF0B0318BA6E75
:1016300001A003D0036A032A01D0036A033ABA5017
:101640000318EF0B0318BA6E01C003F002C004F0D8
:101650000434043203320434043203320350BB6EC8
:101660001200000E076E000E066E19D006500224FE
:10167000046E07500320056E04C0F6FF05C0F7FF97
:101680000800F550CAEC0BF0064A072AA30E046EB8
:10169000550EE82EFED7042EFCD700F000D00650E1
:1016A0000224046E07500320056E04C0F6FF05C037
:1016B000F7FF0800F5500009D8A4D8D71200949C71
:1016C000948E939A93889396819A8186000E036EE6
:1016D000000E026E03BE08D0035015E1140E025C2A
:1016E000D8B011D001D00FD0A30E016E550EE82E48
:1016F000FED7012EFCD700F0024A032A03BEF4D71E
:10170000035001E1EBD7AC9CAC98AC84AC8AAB9CA9
:10171000AB8EAB88400EAF6E1200928092829284A4
:1017200092869288C08EC198C19AC150F00B0A0966
:10173000C16EC050F80B0509C06EC050C70B080938
:10174000C06EC2801200000E036E83AA83AC03D069
:10175000010E036E00D003C001F0026A00D0120037
:10176000000E036E83BA83BC03D0010E036E00D05B
:1017700003C001F0026A00D01200000E036E83AABB
:1017800083BC03D0010E036E00D003C001F0026AD7
:1017900000D01200016E00D081A802D0FDD700D089
:1017A000ACA2FED701C0ADFF1200016ECA96CA9866
:1017B000CA9ACA9CFC0ECA1601C0CBFFCA8412008A
:1017C000BD50F00B0C09BD6EBA50F00B0C09BA6E8F
:1017D000120000D09EAAFED7AECF01F09E9A015013
:1017E00000D01200000EF86E100EF76E000126EF0A
:1017F0000AF09490949A82808282828A8284120073
:06180000958A958C120090
:020000040020DA
:08000000FFFFFFFFFFFFFFFF00
:020000040030CA
:0E000000FF02181EFF8381FF0FC00FE00F40AC
:00000001FF
